:020000040800F2
:1000000030070020350200082D360008253600088C
:1000100029360008251600089D3800080000000059
:10002000000000000000000000000000E1360008B1
:1000300089160008000000009D36000839370008C6
:100040004F0200084F0200084F0200084F0200084C
:100050004F020008DD3600084F0200084F0200087A
:100060004F0200084F0200084F020008291600083E
:100070004F0200084F0200084F0200084F0200081C
:100080004F0200084F020008191400084F02000830
:100090004F0200084F0200084F0200084F020008FC
:1000A0004F0200084F0200084F0200084F020008EC
:1000B0004F0200084F0200084F0200084F020008DC
:1000C0004F0200084F0200084F0200084F020008CC
:1000D0004F0200084F0200084F0200084F020008BC
:1000E0004F0200084F0200084F02000800F002F81B
:1000F00000F090F80AA090E8000C82448344AAF132
:100100000107DA4501D100F085F8AFF2090EBAE82F
:100110000F0013F0010F18BFFB1A43F0010318473B
:10012000C0500000E0500000103A24BF78C878C1E9
:10013000FAD8520724BF30C830C144BF04680C60ED
:10014000704700000023002400250026103A28BF35
:1001500078C1FBD8520728BF30C148BF0B60704739
:100160006E2900F06581702900F0A782662904F0ED
:100170000087652904F0FD86672904F0FA86612965
:1001800004F0F98603681B0A28BF41F08001692941
:1001900000F01281642900F00F81752900F00C81B4
:1001A0006F2900F03582782900F07382E92900F088
:1001B000CF81E42900F0CC81F52900F0C981EF2935
:1001C00000F03282F82900F072820368DB0928BF50
:1001D00041F08001632900F0DB87732900F0E0879C
:1001E000E32900F0EB87F32900F0F0870020704747
:1001F0001FB501F04BF804000020002104F0EAFBD9
:10020000401C60600020002104F0CEFBE0601FBDB8
:1002100010B510BD01F008F81146FFF7E9FF03F033
:100220003DFF01F0E9F803B4FFF7F2FF03BC00F073
:10023000F5FF00000948804709480047FEE7FEE750
:10024000FEE7FEE7FEE7FEE7FEE7FEE7FEE7FEE786
:1002500004480549054A064B70470000413700082D
:10026000ED0000083001002030070020300300209E
:10027000300300200FB41CB5084B06AA7B44694626
:100280000090059800F0EDF804460020694600F063
:10029000FBF820461CBC5DF814FB000009020000BE
:1002A0004FF0000200B5134694469646203922BF0F
:1002B000A0E80C50A0E80C50B1F12001BFF4F7AF5A
:1002C000090728BFA0E80C5048BF0CC05DF804EB3C
:1002D000890028BF40F8042B08BF704748BF20F8AA
:1002E000022B11F0804F18BF00F8012B70477047A8
:1002F0007047704770B5044685690068C10601D52E
:10030000302600E02026C00707D070BDD4E90121C7
:1003100030469047206A401C20626D1EF6D570BDA5
:1003200070B5044685690078C00707D170BDD4E96F
:10033000012120209047206A401C20626D1EF6D5C6
:1003400070BD09684A0501D540B27047C905FCD5A2
:1003500000B2704709684A0501D5C0B27047C905A7
:10036000FCD580B2704770B50C460546012A05D011
:100370002878800600D5EA69002302E0012305E021
:100380005B1C934202D2E05C0028F9D1A869E61810
:10039000C01AA861286A184428622846FFF7AAFFF5
:1003A00004E0D5E9012114F8010B9047B442F8D3D9
:1003B0002846FFF7B5FF70BD2DE9F0410646002441
:1003C00010687529314616A510D0FFF7BAFF00282E
:1003D00002DA404213A507E031688A0701D512A569
:1003E00002E0490704D511A5012401E0FFF7B2FF9F
:1003F00000210A2206F1240709E0B0FBF2FCB0FB61
:10040000F2F302FB1C00303078541846491C0028D7
:10041000F3D123462A463046BDE8F04100F0C8BA81
:10042000000000002D0000002B0000002000000054
:1004300011680268006A530501D508700AE0D30507
:1004400001D5088006E0130603D5C217C1E90002F2
:1004500000E008600120704701694A1C02610878C9
:10046000704700B58FB0CDE90131002105910549F4
:100470007944CDE903101146684600F029F90FB020
:1004800000BD0000E5FFFFFF0A6802F8010B0A60EB
:10049000704700002DE9FF5F15468A460446DFF8E5
:1004A000AC80F8440027D8E900103E46CDE90010A2
:1004B00010E03AF816106A4602A800F08BFE411CC4
:1004C00007D02178890603D5E269391891420DD801
:1004D0000744761C2078800602D5E069B84205DD25
:1004E000AE42E6DB3AF816000028E2D1A069C01B54
:1004F000A0612046FFF7FEFED8E90010CDE900100C
:10050000002017E03AF818106A4602A800F062FED0
:10051000B0F1FF3F81460BD000250DF1080B05E03F
:10052000D4E901211BF8050090476D1C4D45F7D318
:1005300008F10100B0428046E4DB206A38442062C2
:100540002046FFF7EDFEBDE8FF9F0000D64A000001
:100550002DE9F0418046D21D22F007020025D2E9A4
:100560000002F52915A614D0011E72F1000106DA69
:100570000023D0EB030063EB020211A608E0D8F8D9
:1005800000108B0701D50FA602E0490701D50EA682
:1005900001251146002408F1240704E000F0C3F906
:1005A00030323A55641C50EA0102F7D12B463246EC
:1005B00021464046BDE8F04100F0FAB900000000D5
:1005C0002D0000002B0000002000000030B40021AE
:1005D00000F1240408E002F00705D208303542EAB1
:1005E0004372DB086554491C52EA0305F3D10468E1
:1005F000002310A2250708D504F020040C4304D0E2
:10060000C46901230CA2641EC46130BC00F0D0B9DF
:1006100010B5044621461068FFF79CFE02462046AE
:10062000BDE810400023D1E7D21D22F00701D1E937
:100630000023CBE70000000030000000F0B40D46BE
:100640000188090502D5214C7C4402E01F4C7C4402
:100650000E34002100F1240608E002F00F07120911
:10066000E75D42EA03721B097754491C52EA03070B
:10067000F3D102780023120704D5702D06D009B1FA
:10068000022311342246F0BC00F092B90123103449
:10069000F8E770B504460D4621461068FFF75AFE8C
:1006A000024629462046BDE870400023C6E7D21D19
:1006B00022F00703D3E90023C0E70368126843F080
:1006C000200303600823C3610023B7E73849000013
:1006D0002DE9F05F894604464FF0000ADFF874B157
:1006E000FB44C0F820A02046E1688847002874D069
:1006F000252806D0D4E901219047206A401C2062B9
:10070000F1E700265F462046E16888472028054635
:1007100007DB312D05D2781910F8200C08B10643FB
:10072000F1E7B00701D526F00406C4F81CA00027A5
:10073000C4F818A02A2D09D0284604F02DF938B3A2
:1007400004EB8708303DC8F8185019E059F8041B2D
:10075000204604EB87029161E1688847012F054636
:1007600018D1E069002820DA26F020061DE0D8F82C
:10077000180000EB800005EB40003038C8F8180086
:100780002046E1688847054604F006F90028EED1C6
:10079000012F0AD02E2D08D12046E16888477F1C02
:1007A0000546022F46F02006C4DBA069002803DAC4
:1007B000404246F00106A061F00701D026F0100685
:1007C0006C2D0BD0682D09D04C2D39D06A2D35D029
:1007D000742D35D07A2D33D016E038E0E1682F46FD
:1007E00020468847B842054609D16C2F26D04FF4E1
:1007F0008060E168064320468847054604E06C2F88
:100800001AD04FF4807006430DB3A5F141001928AA
:1008100002D8203546F400664A462946204626601E
:100820004E46FFF79DFC80B101280BD0F61D26F047
:10083000070000F1080956E74020E4E78020D8E7E8
:100840000020D6E706F104094DE7284652E7206A62
:10085000BDE8F09FC84800004FF0013C50F8042B61
:1008600051F8043B9A4221D1A2EB0C03934313EAC3
:10087000CC1317D150F8042B51F8043B9A4215D1F0
:10088000A2EB0C03934313EACC130BD150F8042BC7
:1008900051F8043B9A4209D1A2EB0C03934313EAAB
:1008A000CC13DBD04FF00000704700BFD01A01BA64
:1008B000B1FA81F101F0180122FA01F0CB40DBB26C
:1008C000C0B2C01AC1F120012CFA01F3D11A914330
:1008D00011EAC311E6D1704770B50446051F00F058
:1008E000D1FC0068002C14BF446870BD002C18BFF8
:1008F000AC423CBF20466468F8D301680A18AA429B
:1009000018BF456003D12A68054611440160286874
:100910004119A1421CBF6C6070BD616869602168AB
:100920000844286070BD30B5B0F10A0271F10003CF
:100930004FEA900E4EEA817EB0EB0E0061EB910122
:100940004FEA101E4EEA017E10EB0E0041EB111132
:100950004FEA102E4EEA016E10EB0E0041EB112112
:100960004FEA104E4EEA014E10EB0E0041EB1141E2
:10097000401841F100014FEAD00040EA41704FEACF
:10098000D1014FEA810444EA907410EB800544EBF6
:1009900001046D1944EB0404521BA3414FF0000302
:1009A00048BF0A3200D530BD401C41F1000130BDC6
:1009B0002DE9F0470D4699469246044600F1240879
:1009C0000168880604D5E06921F01001216000E08B
:1009D0000120A84201DD471B00E00027A1697A1928
:1009E00002EB0900081AA0612078C00602D4204654
:1009F000FFF780FC002608E0D4E901211AF8060080
:100A00009047206A401C761C20624E45F4DB20781B
:100A1000C0060AD52046FFF76DFC06E0D4E90121A7
:100A200030209047206A401C2062381EA7F1010741
:100A3000F4DC07E0D4E9012118F805009047206AAA
:100A4000401C2062281EA5F10105F3DC2046FFF7BB
:100A500067FC2078000602D50220BDE8F08701205F
:100A6000FBE72DE9FF4F0C461E464FF0FF378BB0DA
:100A7000D2E90001DDF860800A908A46C1F30A5588
:100A800005B93D46002108464FF00000BAF1000FBD
:100A900000F4400005DA00EB80004FF4400101EA69
:100AA00050004FEA9059B9F1010F00DDB9460A989C
:100AB00050EA4A000ED044F61050A5F2FF354543E7
:100AC0002F14B8F1000F1ED07542291E1EDDC9F18A
:100AD00000021CE0B8F1010F4FF0000001D03021FE
:100AE00003E0F24305E02154401CB042FBDB3046FA
:100AF0000022002121540B99C1F80880C1E900208F
:100B00000FB0BDE8F08FBD1B6D1CDEE74A4600DA72
:100B1000694206A800F0FEFB06AB93E8070003ABB2
:100B200083E8070050460A9903F05AFB8DE8070056
:100B3000A0F500501F3800900398002D0ADD42F206
:100B40001F014A460844002303A90390684603F0A6
:100B5000C3FD09E0A0F500504A461F38002303A951
:100B60000390684603F0CDFD8DE807000004000CFB
:100B700003D04FF0FF30410800E01046B8F1000FFD
:100B800003D00022009215461EE0751E05D4FFF723
:100B9000CAFE303262556D1EF9D5B34601220843B4
:100BA00002D000227F1C04E02078302801D10022EE
:100BB0007F1E002A099784D01DE0112D07DAFFF768
:100BC000B2FE303262556D1C50EA0102F5D1084385
:100BD00002D00098C8B10EE00021681E05E0235C39
:100BE000625C63542254401E491C8142F7DBAB46D1
:100BF000A81B401E0990002004F80B000B98099ACE
:100C0000C0F80880C0E9002B7AE711264FF00008F1
:100C100057E72DE9F04F88460446D21D22F0070120
:100C200091B0D1E90001CDE90A0103F0A1FE02462D
:100C30000B98C00F01D02D2007E02068810701D557
:100C40002B2002E0202101EAC000032A099001D0F4
:100C5000072A05DB03464146204600F01BFB0BE15B
:100C60002078800601D5E06900E00620B8F1650F24
:100C7000814606D0B8F1660F18D0B8F1670F70D171
:100C800031E00020B9F1110F009001DB112301E0E8
:100C900009F101030AAA01A90CA8FFF7E2FEDDE9A8
:100CA0000C70002609F10105834647E001204B4600
:100CB00000904FF000470AAA01A90CA8FFF7D1FE47
:100CC000DDE90DB00C995D46002610B909F101006F
:100CD0000D18B9EB050003D4C0F1FF3609F1010589
:100CE000A5EB09002BE0B9F1010F01DA4FF0010982
:100CF0000020B9F1110F0090484601DD112300E0FA
:100D000003460AAA01A90CA8FFF7ABFEDDE90C70A7
:100D10004D4600268346207800070AD4AB4500DA0A
:100D20005D4601A8012D04DD411911F8011C30298F
:100D300007D04F4502DA17F1040F04DA012082468A
:100D40000FE06D1EEEE7002F02DCED1B3E4403E0DA
:100D5000781CA84200DD7D1CB81B00F1010A4FF091
:100D600000472078000703D4AA4501DB4FF0FF3A83
:100D70000021B7F1004F0DF143088DF8431024D046
:100D800002202B23002F01DA7F422D230A21021E8D
:100D9000A0F1010000DC5FB197FBF1FC97FBF1F2E1
:100DA00001FB1C7C17460CF1300C08F801CDEEE776
:100DB000A8F1010003702188090501D5452100E053
:100DC0006521A0F1010800F8011C09980FA9A1EB09
:100DD0000807FF1D00B10120411901EBEA70A1696C
:100DE0003844081A401EA0612078C00602D420466C
:100DF000FFF780FA099828B1D4E901219047206AC9
:100E0000401C20622078C00622D52046FFF772FAE7
:100E10001EE0002E04DBB34502DD01A8805D00E08A
:100E20003020D4E901219047206A401C2062761CC2
:100E3000AAF101005FEA000A0AD100F027FAC068AF
:100E40000168405CD4E901219047206A401C20627F
:100E5000281EA5F10105DCDC07E0D4E9012118F822
:100E6000010B9047206A401C2062381EA7F1010741
:100E7000F3DC2046FFF754FA032011B041E60000EE
:100E80002DE9F04F04460D46D21D22F0070089B02F
:100E9000D0E900974846394603F06AFD0246F80F4C
:100EA00001D02D2307E02068810701D52B2302E024
:100EB000202101EAC0038DF820300BB1012000E0B1
:100EC0000020032A824601D0072A04DB2946204657
:100ED00000F0E0F93FE12078800601D40D2500E024
:100EE000E569C7F30A560D2D49DA00214FEA175B71
:100EF00008464FF00000002F00F4400007DA00EB36
:100F000080004FF4400100EBD07001EA60008115D1
:100F1000012901DD4FF0FF3100224FEA850CBCF1C1
:100F2000180F06D31346ACF118004FF08052C240A0
:100F300003E04FF4801323FA0CF30CF10C0CBCF11A
:100F4000200F04D3ACF1200C09FA0CF001E007FAF1
:100F50000CF000294FF0004801DD18B90FE00ED168
:100F600040450CD319EB02095F4121B9404502D13C
:100F70009F4329EA0209BBEB175F00D0761C20884B
:100F8000000502D57B48784402E07A487844193855
:100F900008AA302302F80A30037C0AF10101002E6E
:100FA0000AF1020A53546A4602DC4FF0300101E0B4
:100FB0004FF031014FF001088DF8001002D0A6F279
:100FC000FF3603E059EA470100D06B4E002D02DCEA
:100FD0002178090704D54FF002082E218DF8011061
:100FE000C44600210BE0C7F303433F01C35C491C27
:100FF0006D1E02F80830052908F1010801DA002DFC
:10100000F1DC00210CE000EB1973491C1B786D1E0C
:10101000082902F808304FEA091908F1010801DA35
:10102000002DF0DC21688B0602D516E0A8F101083E
:10103000E04505DD02EB080313F8013C302BF5D049
:10104000B8F1000F09DD02EB080313F8013C2E2B69
:1010500003D1090701D4A8F10108002D05DD3E21C7
:1010600002F808106D1E08F10108407C002E02F8FD
:10107000080008F1010804DA2D20764202F8080081
:1010800002E02B2002F808000A214FF47A70864211
:1010900008F101080BDB96FBF0F3303302F808305F
:1010A00096FBF0F308F1010800FB136601E0642EE3
:1010B0000CDB642096FBF0F3303302F8083096FB2B
:1010C000F0F308F1010800FB136601E00A2E06DBCD
:1010D00096FBF1F0303002F8080008F1010896FBA9
:1010E000F1F001FB1060303002F80800A16908F14E
:1010F000010808EB050202EB0A00081AA06120783B
:10110000C00602D42046FFF7F5F8216A08AE01EBCD
:101110000A00206204E0D4E9012116F8010B90478F
:10112000BAF1010AF7D22078C00602D52046FFF7AF
:10113000E1F86E4609E016F8010B3E280FD0D4E91D
:1011400001219047206A401C2062B8F10108F2D2C8
:101150002046FFF7E5F809B00320BDE8F08F206ACC
:101160002844206203E0D4E90121302090476D1E1D
:10117000EBD3F8E74640000002FCFFFF10B54369DF
:1011800013B1AFF3008001E0FFF7EDF8012010BDCF
:10119000127800F124010A7000224A700122EDE762
:1011A00011684FF0FF32E9E710B5436913B1AFF3AF
:1011B000008001E0FFF76EF9012010BD128800F1F8
:1011C000240182840022C2840122EDE711684FF0DD
:1011D000FF32E9E72DE9F04116460C46054600F0DE
:1011E00049F8036893F80101012807D0FF2C12D8B1
:1011F000185D80B101202C70BDE8F081D3F80701A3
:101200003246214603F20713C7182846BC46BDE8FC
:10121000F041002360474FF0FF30EDE7014918200F
:10122000ABBEFEE726000200754600F0EFF8AE46C2
:1012300005006946534620F00700854618B020B5E2
:10124000FFF706F8BDE820404FF000064FF000071A
:101250004FF000084FF0000BAC46ACE8C009ACE81A
:10126000C009ACE8C009ACE8C00921F007018D460F
:101270007047000010B500F009F8001D10BD00BF58
:10128000553700000048704718000020004870479C
:10129000300000202DE9F0411F4604460326016876
:1012A000072A01F4006004DB08B116A505E016A5C5
:1012B00003E008B115A500E015A521F0100020609D
:1012C000A069C01EA0610FB1401EA0612046FFF7BB
:1012D00011F84FB1D4E9012138469047206A401CEB
:1012E0002062C01C206206E0206AFAE7D4E90121EE
:1012F00015F8010B9047761EF8D22046FFF710F83C
:10130000BDE8F0814E414E006E616E00494E4600D0
:10131000696E66002DE9F047814616468AB0354869
:1013200078440DC88DE80D0032487844801C03AC29
:101330000DC884E80D0041F69B300844372190FB2E
:10134000F1F290FBF1F5A5F1800501FB12041B3CC5
:1013500002D56442012000E00020DFF898A080461A
:101360000027FA44AAF1BE0A0EE0E0070AD032468E
:10137000684607EB470101230AEB810103F0C1F93D
:101380008DE8070064107F1C002CEED1194F7F44BC
:10139000AE3F19E0E80715D007EB04100DF1180A6D
:1013A00090E80E008AE80E00C068F04201D198195A
:1013B00008903246012306A903A803F0A2F903AB63
:1013C00083E807006D10641C002DE3D14FF001038A
:1013D00032466946B8F1000F03A802D003F07CF949
:1013E00001E003F08EF9C9E90001C9F808200AB04C
:1013F000BDE8F0873C3D000010B50446AFF3008027
:101400002046BDE81040FEF70EBF000000487047C0
:10141000100000207047000080B540F27000C2F25A
:10142000000000F025FA80BD80B584B00290002055
:101430000190029800688068C00770B3FFE70298C7
:101440000168886820F00100886001F0FFF80190D1
:10145000FFE7029800688068C007E8B1FFE701F085
:10146000F5F80199401A032815D3FFE702980068A0
:101470008068C00770B1FFE70299886A40F01000E9
:1014800088620299C86A40F00100C86201208DF8A4
:101490000F0006E0FFE7DCE7FFE700208DF80F0014
:1014A000FFE79DF80F0004B080BD000080B582B05A
:1014B00001900198406A00900098806A10F0500FE7
:1014C00028D1FFE70099886A40F40070886200988C
:1014D0000068806800F46020B0F5602F16D1FFE747
:1014E0000098007B90B9FFE70099886A20F480702B
:1014F00088620098806AC004002806D4FFE700993B
:10150000886A40F001008862FFE7FFE7009800F07A
:10151000A3F905E00098006A016B01988847FFE78E
:1015200002B080BD80B582B001900198406A009001
:101530000099886A40F0400088620099C86A40F0CB
:101540000400C862009800F08FF902B080BD00006E
:1015500080B582B001900198406A0090009800F038
:101560007FF902B080BD000080B584B002900020F9
:1015700001900090029800688068C007002849D157
:10158000FFE702980168886840F00100886040F237
:101590000000C2F2000000684DF68361C4F21B3106
:1015A000A0FB0110800C0090FFE7009820B1FFE73E
:1015B000009801380090F8E701F048F80190FFE743
:1015C000029800688068C00718BBFFE701F03EF88A
:1015D0000199401A03281BD3FFE70298006880682E
:1015E000C007A0B9FFE70299886A40F0100088623E
:1015F0000299C86A40F00100C862FFE70299002022
:1016000081F82400FFE701208DF80F0006E0FFE7D6
:10161000D6E7FFE700208DF80F00FFE79DF80F00E9
:1016200004B080BDFFE7FEE780B540F2A000C2F243
:10163000000000F073FC80BD84B003900291019221
:1016400000930398C16B026C0120904048600098A1
:1016500003990968486003984068102809D1FFE79A
:101660000198039909688860029803990968C8601D
:1016700008E002980399096888600198039909684D
:10168000C860FFE704B070477047000081B0EFF317
:10169000108072B60090FFE7FEE7000081B0009076
:1016A00001B0704785B00390029100208DF80700CB
:1016B0000090FFE7039890F82400012804D1FFE789
:1016C00002208DF81300C3E00399012081F8240063
:1016D000FFE7FFE702984068062812D8FFE7039863
:1016E0000068406B029A1168526802EB8202053A68
:1016F0001F23934098439140084303990968486326
:1017000029E0029840680C2812D8FFE70398006887
:10171000006B029A1168526802EB8202233A1F237F
:10172000934098439140084303990968086311E086
:1017300003980068C06A029A1168526802EB82023C
:10174000413A1F2393409843914008430399096805
:10175000C862FFE7FFE7029800680A2812D3FFE794
:1017600003980068C06802990A68896802EB42021F
:101770001E3A072393409843914008430399096810
:10178000C86010E003980068006902990A688968D7
:1017900002EB420207239340984391400843039988
:1017A00009680861FFE702980068102805D0FFE784
:1017B00002980068112840D1FFE70398006842F2C0
:1017C0000041C4F2010188422DD1FFE7039800686F
:1017D00080680002002825D4FFE703980168886824
:1017E00040F40000886002980068102819D1FFE7D3
:1017F00040F20000C2F2000000684DF68361C4F2BE
:101800001B31A0FB0110800C00EB80004000009019
:10181000FFE7009820B1FFE7009801380090F8E753
:10182000FFE7FFE708E00399886A40F0200088623C
:1018300001208DF80700FFE7FFE7FFE7039900208D
:1018400081F82400FFE79DF807008DF81300FFE7FB
:101850009DF8130005B0704781B0009001B070474B
:1018600081B0009001B0704781B0009001B0704726
:1018700080B582B001900198006840688006002819
:1018800042D5FFE7019800680068800700283AD534
:10189000FFE70198806AC006002806D4FFE7019997
:1018A000886A40F400708862FFE7019800688068E9
:1018B00000F46020B0F5602F1CD1FFE70198007B99
:1018C000C0B9FFE701980168486820F0200048602F
:1018D0000199886A20F4807088620198806AC00447
:1018E000002806D4FFE70199886A40F00100886269
:1018F000FFE7FFE70198FFF7AFFF019801686FF07E
:1019000012000860FFE7FFE70198006840680006E2
:10191000002852D5FFE701980068006840070028BA
:101920004AD5FFE70198806AC006002806D4FFE781
:101930000199886A40F400508862FFE701980068C6
:10194000806800F4E040B0F5E04F14D0FFE7019864
:10195000006840684005002825D4FFE7019800682A
:10196000806800F46020B0F5602F1CD1FFE701987B
:10197000007BC0B9FFE701980168486820F080004B
:1019800048600199886A20F4805088620198806AD2
:10199000C005002806D4FFE70199886A40F00100DD
:1019A0008862FFE7FFE70198FFF778FE019801687A
:1019B0006FF00C000860FFE7FFE7019800684068DF
:1019C0004006002815D5FFE7019800680068C007A9
:1019D00070B1FFE70199886A40F48030886201980D
:1019E00000F014F9019801686FF001000860FFE74A
:1019F000FFE702B080BD000080B588B006900020EF
:101A00008DF81700049003900290069820B9FFE724
:101A100001208DF81F00F4E00698806830B1FFE7E0
:101A20000698007D08B1FFE7FFE7FFE70698806AA8
:101A300050B9FFE706990020C862069981F8240092
:101A4000069800F0E7F8FFE70698FFF7EDFC8DF841
:101A500017000698806AC006002800F1C480FFE7DE
:101A60009DF81700002840F0BE80FFE70698806AC6
:101A700040F0020020F48850069988620699486870
:101A8000CA691043097B40EA410103980843039067
:101A9000069881680120B1F5807F019008D0FFE7AA
:101AA000069880680138B0FA80F040090190FFE79D
:101AB00001990498CA0740F48071002A18BF0846AB
:101AC00004900698007D01281ED1FFE70698007B50
:101AD00070B9FFE7069881694EF20000CFF6FF70FB
:101AE00000EB41300499084340F4006004900AE0A0
:101AF0000699886A40F0200088620699C86A40F01A
:101B00000100C862FFE7FFE706980068406820F41C
:101B10006940049908430699096848600698006876
:101B200080684FF2FD71CFF6E171084003990843D8
:101B3000069909688860069881680120B1F5807F60
:101B4000009008D0FFE7069880680138B0FA80F06E
:101B500040090090FFE7009800F00100002818BF3E
:101B60004FF48070B0F5807F09D1FFE706980169D6
:101B70000020CFF6F07000EB01500290FFE70698CE
:101B80000068C06A20F47000029908430699096849
:101B9000C86206980068806840F6FE61CFF61F7143
:101BA0000840039988420CD1FFE706990020C862DB
:101BB0000698806A40F0010020F0020006998862D1
:101BC00010E00698806A40F0100020F002000699AC
:101BD00088620699C86A40F00100C86201208DF849
:101BE0001700FFE708E00699886A40F01000886255
:101BF00001208DF81700FFE79DF817008DF81F00F2
:101C0000FFE79DF81F0008B080BD000081B0009084
:101C100001B0704780B58AB0099000200890079005
:101C2000069005900998006842F20041C4F2010153
:101C300088425DD1FFE7FFE741F21800C4F20200DD
:101C4000016841F400710160006800F400700490C4
:101C50000498FFE7FFE741F21800C4F202000168B0
:101C600041F004010160006800F004000390039853
:101C7000FFE70F2005900320069040F60000C4F215
:101C8000010005A900F04CFB40F2A000C2F20000E8
:101C900002900821C4F202010160002141608160CC
:101CA0008021C1604FF4007101614FF40061416116
:101CB000202181614FF40051C16100F073FA18B125
:101CC000FFE7FFF7E3FCFFE7FFE7099840F2A00119
:101CD000C2F20001016209984862FFE712200190F8
:101CE0000022114600F048FD019800F03BFDFFE79F
:101CF0000AB080BD80B586B00490039102920020A6
:101D00008DF807000498006842F20041C4F2010116
:101D1000884209D0FFE70498006842F60001C4F247
:101D20000101884209D1FFE742F20440C4F20100F8
:101D3000006800F47020009002E000200090FFE7AF
:101D40000098002840F0DC80FFE7FFE7049890F857
:101D50002400012804D1FFE702208DF81700D8E005
:101D60000499012081F82400FFE7FFE70498FFF7BA
:101D7000FBFB8DF807009DF80700002840F0B880B5
:101D8000FFE70498806A40F4807040F60161884360
:101D9000049988620498006842F60001C4F20101C7
:101DA000884209D1FFE742F20440C4F20100006812
:101DB00010F4702F03D018E00020B0B9FFE70499A9
:101DC000886A20F4801088620498006840684005A2
:101DD000002809D5FFE70498806A40F4805020F479
:101DE000005004998862FFE72CE00499886A40F467
:101DF000801088620498006842F20041C4F2010138
:101E0000884209D0FFE70498006842F60001C4F256
:101E10000101884209D1FFE742F20440C4F2010007
:101E200000684005002803D40BE0012048B9FFE713
:101E30000498806A40F4805020F40050049988622D
:101E4000FFE7FFE70498806AC004002806D5FFE793
:101E50000499C86A20F00600C86203E004990020D3
:101E6000C862FFE7FFE70499002081F82400FFE73C
:101E70000498016A41F2AD40C0F6000088620498FF
:101E8000016A41F25150C0F60000C8620498016A2C
:101E900041F22550C0F600000863049801686FF015
:101EA0000200086004980168886840F480708860C7
:101EB00004980168006A4C31039A029B00F0CAF949
:101EC00004980068806800F46020B0F5602F07D1A6
:101ED000FFE704980168886840F4A000886006E085
:101EE00004980168886840F480108860FFE706E085
:101EF000FFE70499002081F82400FFE7FFE703E0F3
:101F000001208DF80700FFE79DF807008DF8170006
:101F1000FFE79DF8170006B080BD000080B58EB0C9
:101F20000D900D98C06B00680C900D9800680068CB
:101F30000B900C980D99096CC8404007002875D586
:101F4000FFE79DF82C00400700286FD5FFE70D98AC
:101F5000006800688006002807D4FFE70D98016834
:101F6000086820F004000860FFE70D980068082169
:101F7000C4F20201884203D1FFE704200A9047E03F
:101F80000D9800681C21C4F20201884203D1FFE7CA
:101F90004020099039E00D9800683021C4F2020118
:101FA000884204D1FFE74FF4806008902AE00D9842
:101FB00000684421C4F20201884204D1FFE74FF4D3
:101FC000804007901BE00D9800685821C4F2020180
:101FD000884204D1FFE74FF4802006900CE00D9872
:101FE00001686C22C4F202024FF08060914208BF87
:101FF0004FF480000690FFE706980790FFE70798E8
:102000000890FFE708980990FFE709980A90FFE712
:102010000A980421C4F2020108600D98C06A20B138
:10202000FFE70D98C16A8847FFE7B8E00C980D9963
:10203000096CC8408007002840F18080FFE79DF8C8
:102040002C008007002879D5FFE70D98006800680C
:10205000800600280BD4FFE70D980168086820F07F
:102060000A0008600D99012081F82100FFE70D9812
:1020700000680821C4F20201884203D1FFE7022070
:10208000059047E00D9800681C21C4F202018842C7
:1020900003D1FFE72020049039E00D98006830213B
:1020A000C4F20201884204D1FFE74FF400700390AC
:1020B0002AE00D9800684421C4F20201884204D14C
:1020C000FFE74FF4005002901BE00D980068582184
:1020D000C4F20201884204D1FFE74FF400300190BE
:1020E0000CE00D9801686C22C4F202024FF00070FF
:1020F000914208BF4FF400100190FFE70198029051
:10210000FFE702980390FFE703980490FFE7049825
:102110000590FFE705980421C4F202010860FFE77B
:102120000D99002081F82000FFE70D98806A20B10A
:10213000FFE70D98816A8847FFE72FE00C980D991B
:10214000096CC8400007002827D5FFE79DF82C0040
:102150000007002821D5FFE70D980168086820F0E6
:102160000E0008600D98C26B016C012000FA01F1AD
:1021700051600D9988630D9981F82100FFE70D9951
:10218000002081F82000FFE70D98006B20B1FFE7E9
:102190000D98016B8847FFE7FFE7FFE7FFE70EB009
:1021A00080BD000083B0019000200090019820B90C
:1021B000FFE701208DF80B0047E0019908684FF612
:1021C000F872CBF6FD7210444CF6CD42CCF6CC4200
:1021D000A0FB02026FF0030000EA9200086401997C
:1021E0000020C4F20200C8630199022081F8210096
:1021F0000198006800680090009843F6F0718843E9
:10220000009001994868D1F808C0CB680A6940EA93
:102210000C00184310434A6910438A691043C96986
:1022200001430098084300900098019909680860EC
:10223000019900208863019A012182F821100199F7
:1022400081F820008DF80B00FFE79DF80B0003B02C
:102250007047000080B586B004900391029201930C
:1022600000208DF80300FFE7049890F82000012873
:1022700004D1FFE702208DF817004CE004990120FB
:1022800081F82000FFE7FFE7049890F8210001287B
:1022900032D1FFE70499022081F82100049900203F
:1022A000886304980168086820F0010008600498B9
:1022B0000399029A019BFFF7BFF90498C06A38B1ED
:1022C000FFE704980168086840F00E0008600CE021
:1022D00004980168086820F0040008600498016808
:1022E000086840F00A000860FFE704980168086881
:1022F00040F00100086009E0FFE70499002081F840
:102300002000FFE702208DF80300FFE79DF803009F
:102310008DF81700FFE79DF8170006B080BD00009C
:1023200090B00F900E9100200D900990FFE70E984D
:1023300000680D99C840002800F07F81FFE70D99E3
:10234000012088400C900E9800680C9908400B9072
:102350000B980C99884240F06C81FFE70E9840681A
:102360000590002851D0FFE7059801283AD0FFE7F3
:10237000059802283FD0FFE7059803285FD0FFE7C4
:102380000598112832D0FFE70598122838D0FFE7CA
:1023900005980021C1F21101884236D0FFE7059867
:1023A0000021C1F2120188422FD0FFE705980021D9
:1023B000C1F22101884228D0FFE705980021C1F22F
:1023C0002201884221D0FFE705980021C1F23101A6
:1023D00088421AD0FFE705980021C1F232018842F5
:1023E00013D02FE00E98C06809902CE00E98C068BA
:1023F0000430099027E00E98C0680830099022E068
:102400000E98C0680C3009901DE00E98806818B9CD
:10241000FFE70420099011E00E988068012806D19A
:10242000FFE7082009900C980F99086105E0082043
:1024300009900C980F994861FFE7FFE703E000203F
:10244000099000E0FFE70B98FF2803D8FFE70F98FB
:10245000049003E00F9804300490FFE7049808907C
:102460000B98FF2804D8FFE70D988000039006E042
:102470000D996FF01F0000EB81000390FFE70398B8
:10248000079008980068079A0F219140884309999E
:1024900091400843089908600E98C079C00600284A
:1024A00040F1C680FFE7FFE741F21800C4F20200E6
:1024B000016841F001010160006800F00100069030
:1024C0000698FFE70D9820F003000821C4F20101EF
:1024D00040580A900D9800F0030081000F2000FA88
:1024E00001F10A9888430A900F9840F60001C4F25F
:1024F0000101884203D1FFE70020029026E00F98F7
:1025000040F60041C4F20101884203D1FFE70120F7
:10251000019018E00F9841F20001C4F201018842D5
:1025200003D1FFE7022000900AE00F9941F2004238
:10253000C4F201020420914208BF03200090FFE78B
:1025400000980190FFE701980290FFE702980D992B
:1025500001F00301890000FA01F10A9808430A908A
:102560000A980D9921F003010822C4F20102885053
:102570000E988079C00748B1FFE70B9A40F20041FE
:10258000C4F2010108681043086008E00B9A40F2A9
:102590000041C4F20101086890430860FFE70E980B
:1025A00080798007002809D5FFE70B9A40F20441A3
:1025B000C4F2010108681043086008E00B9A40F279
:1025C0000441C4F20101086890430860FFE70E98D7
:1025D0008079C006002809D5FFE70B9A40F2084130
:1025E000C4F2010108681043086008E00B9A40F249
:1025F0000841C4F20101086890430860FFE70E98A3
:1026000080798006002809D5FFE70B9A40F20C413B
:10261000C4F2010108681043086008E00B9A40F218
:102620000C41C4F20101086890430860FFE7FFE72E
:10263000FFE70D9801300D9079E610B0704700006B
:1026400040F60000C0F201107047000040F2281070
:10265000C2F200000068704740F20400C2F20000BD
:10266000027840F22811C2F20001086810440860A4
:102670007047000080B542F20001C4F20201086810
:1026800040F010000860032000F090F80F2000F0E8
:1026900005F800F03BF8002080BD000080B582B056
:1026A000009040F20000C2F20000006840F2040115
:1026B000C2F200010A784FF47A71B1FBF2F1B0FB7B
:1026C000F1F000F065FE20B1FFE701208DF8070072
:1026D00018E000980F280DD8FFE700994FF0FF3061
:1026E000002200F049F8009840F20801C2F200010F
:1026F000086003E001208DF8070003E000208DF85A
:102700000700FFE79DF8070002B080BD80B584B0E8
:10271000FFE741F21800C4F20200016841F0010134
:102720000160006800F0010003900398FFE7FFE7F5
:1027300041F21C00C4F20200016841F080510160C6
:10274000006800F0805002900298FFE70520019099
:102750000022114600F010F8019800F003F804B0D0
:1027600080BD000080B582B08DF807009DF907009C
:1027700001F0DEFB02B080BD80B586B08DF8170099
:10278000049103920020029001F0EAFB02909DF96F
:102790001700019002980499039A00F049FF01463E
:1027A000019801F0E5FB06B080BD000080B582B065
:1027B0000190019801F0FEFB02B080BD80B586B0AB
:1027C000049000200390029004980078C00700282D
:1027D00000F0AC80FFE700208DF8070041F21C00FC
:1027E000C4F202000068C000002813D4FFE7FFE72E
:1027F00041F21C00C4F20200016841F08051016006
:10280000006800F0805000900098FFE701208DF8EC
:102810000700FFE747F20000C4F200000068C005AF
:10282000002822D4FFE747F20001C4F20001086843
:1028300040F480700860FFF709FF0390FFE747F25C
:102840000000C4F200000068C00500280CD4FFE7B7
:10285000FFF7FCFE0399401A652804D3FFE7032025
:102860008DF817008AE0EAE7FFE741F22000C4F2A2
:102870000200006800F4407002900298E0B3FFE7A5
:1028800002980499496801F44071884234D0FFE706
:1028900041F22001C4F20201086820F44070029065
:1028A00040F24042C4F24222012010600020106039
:1028B000029808609DF80800C007E0B1FFE7FFF745
:1028C000C5FE0390FFE741F22000C4F20200006859
:1028D000800700280ED4FFE7FFF7B8FE0399401ADF
:1028E00041F28931884204D3FFE703208DF81700B5
:1028F00044E0E8E7FFE7FFE741F22001C4F202010C
:10290000086820F44070049A5268104308609DF8EB
:102910000700012809D1FFE741F21C01C4F20201BE
:10292000086820F080500860FFE7FFE7049800780F
:10293000800700280CD5FFE741F20401C4F2020130
:10294000086820F44040049A926810430860FFE74A
:1029500004980078C00600280CD5FFE741F2040176
:10296000C4F20201086820F48000049AD26810437F
:102970000860FFE700208DF81700FFE79DF81700BB
:1029800006B080BD80B584B002900191029820B954
:10299000FFE701208DF80F001BE1019842F20001D2
:1029A000C4F20201096801F00701884216D9FFE765
:1029B00042F20000C4F20200016821F00701019A0E
:1029C00011430160006800F007000199884204D0BB
:1029D000FFE701208DF80F00FBE0FFE70298007889
:1029E000800700282AD5FFE70298007840070028D2
:1029F00009D5FFE741F20401C4F20201086840F47E
:102A0000E0600860FFE7029800780007002809D519
:102A1000FFE741F20401C4F20201086840F460508B
:102A20000860FFE741F20401C4F20201086820F0E7
:102A3000F000029A926810430860FFE7029800785D
:102A4000C007002860D0FFE70298406801280ED137
:102A5000FFE741F20000C4F2020000688003002892
:102A600004D4FFE701208DF80F00B2E021E00298C6
:102A7000406802280ED1FFE741F20000C4F20200D4
:102A800000688001002804D4FFE701208DF80F00C2
:102A90009FE00DE041F20000C4F2020000688007F0
:102AA000002804D4FFE701208DF80F0091E0FFE734
:102AB000FFE741F20401C4F20201086820F00300BC
:102AC000029A526810430860FFF7C0FD0090FFE7CC
:102AD00041F20400C4F20200006800F00C00029908
:102AE0004968B0EB810F0ED0FFE7FFF7AFFD00990B
:102AF000401A41F28931884204D3FFE703208DF860
:102B00000F0066E0E4E7FFE7019842F20001C4F23B
:102B10000201096801F00701884216D2FFE742F27C
:102B20000000C4F20200016821F00701019A11437C
:102B30000160006800F007000199884204D0FFE7B7
:102B400001208DF80F0044E0FFE70298007840076D
:102B500000280CD5FFE741F20401C4F20201086825
:102B600020F4E060029AD26810430860FFE7029800
:102B70000078000700280DD5FFE741F20401C4F2F8
:102B80000201086820F46050029A126940EAC2000B
:102B90000860FFE700F04CF841F20401C4F20201C2
:102BA0000968C9B20A0945F27801C0F60001895CDA
:102BB000C84040F20001C2F20001086040F2080083
:102BC000C2F200000068FFF769FD00208DF80F00D9
:102BD000FFE79DF80F0004B080BD000040F2000048
:102BE000C2F200000068704780B5FFF7F7FF41F2BE
:102BF0000401C4F202010968C1F3022245F288010E
:102C0000C0F60001895CC84080BD000080B5FFF7B8
:102C1000E5FF41F20401C4F202010968C1F3C222D6
:102C200045F28801C0F60001895CC84080BD000003
:102C30008BB040F60E70C1F210000A9040F60A30D8
:102C4000C0F60C50099040F20670C0F608100890CB
:102C500040F20230C0F20450079040F20120ADF87B
:102C60001A0000200590049003900290019041F218
:102C70000400C4F2020000680590059800F00C0002
:102C800001460091E0B3FFE70098042804D0FFE775
:102C90000098082806D034E041F20020C0F27A0003
:102CA000019034E00598C0F3834107A8405C02908E
:102CB0009DF81600C007C0B1FFE741F20400C4F25E
:102CC0000200006800F400310DF11A0040EA5140A2
:102CD00000780490029841F20021C0F27A01484342
:102CE0000499B0FBF1F0039007E0029840F6001160
:102CF000C0F23D0148430390FFE70398019006E0CE
:102D0000FFE741F20020C0F27A000190FFE701984E
:102D10000BB0704780B586B00490049820B9FFE7E7
:102D200001208DF817002EE304980078C0070028D2
:102D300000F0AE80FFE741F20400C4F20200006838
:102D400000F00C00042813D0FFE741F20400C4F2A5
:102D50000200006800F00C0008281BD1FFE741F2D8
:102D60000400C4F202000068C003002812D5FFE787
:102D700041F20000C4F2020000688003002808D578
:102D8000FFE70498406820B9FFE701208DF817009D
:102D9000F9E27CE0FFE704984068B0F5803F09D194
:102DA000FFE741F20001C4F20201086840F48030FC
:102DB000086032E00498406868B9FFE741F200011A
:102DC000C4F20201086820F480300860086820F42A
:102DD0008020086020E004984068B0F5A02F0DD155
:102DE000FFE741F20001C4F20201086840F48020CC
:102DF0000860086840F4803008600CE041F200018F
:102E0000C4F20201086820F480300860086820F4E9
:102E100080200860FFE7FFE7FFE7FFE704984068CE
:102E2000D0B1FFE7FFF712FC0390FFE741F200008B
:102E3000C4F202000068800300280CD4FFE7FFF70B
:102E400005FC0399401A652804D3FFE703208DF899
:102E5000170098E2EAE719E0FFF7F8FB0390FFE7B5
:102E600041F20000C4F202000068800300280CD583
:102E7000FFE7FFF7EBFB0399401A652804D3FFE750
:102E800003208DF817007EE2EAE7FFE7FFE7FFE7A0
:102E9000049800788007002840F18D80FFE741F218
:102EA0000400C4F20200006810F00C0F13D0FFE71A
:102EB00041F20400C4F20200006800F00C0008288F
:102EC00029D1FFE741F20400C4F202000068C00308
:102ED000002820D4FFE741F20000C4F2020000689D
:102EE0008007002809D5FFE704980069012804D06D
:102EF000FFE701208DF8170045E241F20001C4F21E
:102F00000201086820F0F800049A526940EAC20001
:102F10000860FFE74EE00498006958B3FFE700211E
:102F2000C4F2422101200860FFF790FB0390FFE705
:102F300041F20000C4F202000068800700280CD4AF
:102F4000FFE7FFF783FB0399401A032804D3FFE749
:102F500003208DF8170016E2EAE741F20001C4F2FF
:102F60000201086820F0F800049A526940EAC200A1
:102F700008601EE00021C4F2422100200860FFF733
:102F800065FB0390FFE741F20000C4F20200006815
:102F9000800700280CD5FFE7FFF758FB0399401A7C
:102FA000032804D3FFE703208DF81700EBE1EAE7DD
:102FB000FFE7FFE7FFE7049800780007002848D5FF
:102FC000FFE70498806918B3FFE740F28041C4F23C
:102FD000422101200860FFF739FB0390FFE741F22F
:102FE0002400C4F202000068800700280CD4FFE728
:102FF000FFF72CFB0399401A032804D3FFE70320B3
:103000008DF81700BFE1EAE7012000F049FB1FE05F
:1030100040F28041C4F2422100200860FFF716FB15
:103020000390FFE741F22400C4F202000068800729
:1030300000280CD5FFE7FFF709FB0399401A032886
:1030400004D3FFE703208DF817009CE1EAE7FFE7D0
:10305000FFE7049800784007002840F1D880FFE798
:1030600000208DF8070041F21C00C4F20200006845
:10307000C000002813D4FFE7FFE741F21C00C4F2B0
:103080000200016841F080510160006800F080504A
:1030900000900098FFE701208DF80700FFE747F256
:1030A0000000C4F200000068C005002822D4FFE739
:1030B00047F20001C4F20001086840F48070086023
:1030C000FFF7C4FA0390FFE747F20000C4F20000E4
:1030D0000068C00500280CD4FFE7FFF7B7FA039992
:1030E000401A652804D3FFE703208DF817004AE152
:1030F000EAE7FFE7FFE70498C068012809D1FFE786
:1031000041F22001C4F20201086840F001000860A9
:1031100031E00498C06868B9FFE741F22001C4F2C9
:103120000201086820F001000860086820F004002F
:1031300008601FE00498C06805280DD1FFE741F240
:103140002001C4F20201086840F004000860086829
:1031500040F0010008600CE041F22001C4F20201DD
:10316000086820F001000860086820F0040008608A
:10317000FFE7FFE7FFE7FFE70498C068E0B1FFE77C
:10318000FFF764FA0390FFE741F22000C4F2020067
:103190000068800700280ED4FFE7FFF757FA03996D
:1031A000401A41F28931884204D3FFE703208DF8A9
:1031B0001700E8E0E8E71BE0FFF748FA0390FFE7B5
:1031C00041F22000C4F202000068800700280ED5FA
:1031D000FFE7FFF73BFA0399401A41F28931884231
:1031E00004D3FFE703208DF81700CCE0E8E7FFE702
:1031F0009DF80700012809D1FFE741F21C01C4F244
:103200000201086820F080500860FFE7FFE704989B
:10321000C069002800F0B380FFE741F20400C4F267
:103220000200006800F00C00082800F08280FFE730
:103230000498C06902285CD1FFE76021C4F24221F2
:1032400000200860FFF702FA0390FFE741F2000058
:10325000C4F202000068800100280CD5FFE7FFF7E8
:10326000F5F90399401A032804D3FFE703208DF8EA
:10327000170088E0EAE70498006AB0F5803F0CD1B7
:10328000FFE741F20401C4F20201086820F40030B3
:10329000049A926810430860FFE741F20401C4F207
:1032A0000201086820F47410049B1A6A5B6A1A43CE
:1032B000104308606021C4F2422101200860FFF73A
:1032C000C5F90390FFE741F20000C4F20200006874
:1032D000800100280CD4FFE7FFF7B8F90399401AE2
:1032E000032804D3FFE703208DF817004BE0EAE73B
:1032F0001EE06021C4F2422100200860FFF7A6F919
:103300000390FFE741F20000C4F202000068800170
:1033100000280CD5FFE7FFF799F90399401A032815
:1033200004D3FFE703208DF817002CE0EAE7FFE75E
:1033300024E00498C069012804D1FFE701208DF83A
:10334000170020E041F20400C4F20200006802907D
:10335000029800F480300499096A884208D1FFE796
:10336000029800F470100499496A884204D0FFE77B
:1033700001208DF8170006E0FFE7FFE7FFE70020D8
:103380008DF81700FFE79DF8170006B080BD00001C
:1033900080B582B00190019800F0A4F902B080BD20
:1033A00080B582B00090009820B9FFE701208DF829
:1033B00007003EE00098806908B1FFE700E0FFE702
:1033C000009890F83D0040B9FFE70099002081F88F
:1033D0003C00009800F032F8FFE70099242081F8C3
:1033E0003D0000980168C86820F40050C86000984B
:1033F00000F0A8F900980168086920F4904008617D
:1034000000980168486920F02A0048610098016826
:10341000C86840F40050C860009900200864009A11
:10342000202182F83D10009A82F83E108DF80700A6
:10343000FFE79DF8070002B080BD000080B58AB0AC
:103440000990002008900790069005900998006860
:1034500043F60001C4F20101884239D1FFE7FFE7DA
:1034600041F21800C4F20200016841F48041016099
:10347000006800F4804004900498FFE7FFE741F201
:103480001800C4F20200016841F004010160006804
:1034900000F0040003900398FFE74FF400700590DC
:1034A000022006900320089040F60000C4F20100BC
:1034B000019005A90291FEF733FF019802994FF49C
:1034C00080620592002206920792FEF729FFFFE72D
:1034D0000AB080BD80B58AB008900791ADF81A2077
:1034E000059300200290089890F83D00202840F0B5
:1034F0009080FFE7079820B1FFE7BDF81A0020B9D8
:10350000FFE701208DF8270087E0FFE7089890F893
:103510003C00012804D1FFE702208DF827007CE061
:103520000899012081F83C00FFE7FFE70899002097
:1035300008640899212081F83D00FFF787F8029080
:10354000BDF81A0008998884BDF81A000899C88443
:1035500008988068B0F5805F09D1FFE70898006996
:1035600028B9FFE7002004900798039004E007982B
:10357000049000200390FFE7FFE70899002081F8FE
:103580003C00FFE7FFE70898C08C58B3FFE70898B6
:10359000029B05996A4611608021002200F030F9F3
:1035A00020B1FFE703208DF8270036E0049858B9D2
:1035B000FFE7039800886FF35F2008990968486067
:1035C00003980230039008E004980078089909688D
:1035D0004860049801300490FFE70899C88C0138CE
:1035E000C884D0E70898029B05996A46116040217B
:1035F000002200F005F920B1FFE703208DF8270035
:103600000BE00899202081F83D0000208DF827006C
:1036100003E002208DF82700FFE79DF827000AB09D
:1036200080BD0000FFE7FEE7FFE7FEE7FFE7FEE7FC
:1036300088B0079006910592079800F00700049063
:103640000498C0F10700052803D3FFE70420019088
:1036500004E00498C0F107000190FFE7019803908F
:1036600004980430062803D8FFE70020009003E008
:10367000049803380090FFE7009802900698039999
:10368000012202FA01F101390840029B9840059994
:103690009A40013A1140084308B070477047000053
:1036A00082B00190019840F20001C2F20001096865
:1036B000C90844F6D352C1F26202A1FB0221890972
:1036C00048430090FFE700BFFFE70098411E0091CC
:1036D0000028F8D1FFE702B07047000070470000F3
:1036E0007047000080B582B0009000980138B0F1BA
:1036F000807F03D3FFE70120019019E00098013893
:103700004EF21401CEF2000108604FF0FF300F219D
:1037100000F02EFC4EF21801CEF2000100200860ED
:103720004EF21002CEF20002072111600190FFE775
:10373000019802B080BD000080B5FEF78DFF80BD0E
:103740007047000080B584B003900398006800695A
:1037500020F44050039A1168D2681043086103991D
:1037600088680A6949691043084302900398006811
:10377000C06841F20C6188430299084303990968C3
:10378000C86003980068406920F44070039A11688B
:103790009269104348610398006843F60001C4F23F
:1037A0000101884204D1FFE7FFF730FA019003E0FE
:1037B000FFF71AFA0190FFE7019819214843039A8D
:1037C000116852689200B0FBF2FC48F21F52C5F239
:1037D000EB12ACFB02304309642003FB10CC322017
:1037E00000EB0C10A0FB0202F02000EA521000EBEC
:1037F0000310C2F343121044886004B080BD00007F
:1038000080B586B0DDF820C0049003918DF80B20C0
:103810000193FFE704980068006803990840401A84
:10382000B0FA80F040099DF80B1088422ED1FFE7D6
:103830000898013048B3FFE7089840B1FFE7FEF76A
:1038400005FF0199401A089988421DD9FFE704989D
:103850000168C86820F4D070C8600498016848699D
:1038600020F0010048610499202081F83D0004996E
:1038700081F83E00FFE70499002081F83C00FFE753
:1038800003208DF8170005E0FFE7C3E700208DF85F
:103890001700FFE79DF8170006B080BDFFE7FEE7C1
:1038A00080B596B00CA801902821FCF7F9FC01988E
:1038B000002302930B930A930993089307930693AB
:1038C00005930493039301220C924FF480310D91E0
:1038D0000E9310920222139214914FF4E01115915D
:1038E000FFF718FA18B1FFE7FDF7D0FEFFE70F204A
:1038F000079002210891002009904FF480620A92FB
:103900000B9007A8FFF73EF818B1FFE7FDF7BEFEE2
:10391000FFE7022003904FF40040059003A8FEF754
:103920004DFF18B1FFE7FDF7B1FEFFE716B080BD10
:1039300080B582B0FFE741F21400C4F202000168D2
:1039400041F001010160006800F001000190019860
:10395000FFE70B20009000221146FEF70DFF0098B4
:10396000FEF700FF02B080BD80B584B00021039156
:103970000291019140F27000C2F20000009042F208
:103980000042C4F2010202604FF4807282600122A0
:10399000027301754FF46022C2614160042101612C
:1039A000FEF72AF818B1FFE7FDF770FEFFE70020E9
:1039B0000190012002900220039040F27000C2F2B8
:1039C000000001A9FDF76EFE18B1FFE7FDF75EFEEE
:1039D000FFE7012001900220029040F27000C2F245
:1039E000000001A9FDF75EFE18B1FFE7FDF74EFEEE
:1039F000FFE7022001900320029040F27000C2F223
:103A0000000001A9FDF74EFE18B1FFE7FDF73EFEED
:103A1000FFE7032001900420029040F27000C2F200
:103A2000000001A9FDF73EFE18B1FFE7FDF72EFEED
:103A3000FFE704B080BD000082B0FFE741F218004C
:103A4000C4F20200016841F020010160006800F04A
:103A5000200001900198FFE7FFE741F21800C4F24F
:103A60000200016841F004010160006800F00400F8
:103A700000900098FFE702B07047000080B582B068
:103A800040F2E400C2F20000019043F60001C4F2EB
:103A9000010101604FF4E131416000218160C160AA
:103AA00001610C2242618161C161FFF779FC18B1AB
:103AB000FFE7FDF7EBFDFFE702B080BD00F032BA93
:103AC00080B5AFF300800821BDE8804000F02DBA3A
:103AD00080B5AFF300800821BDE8804000F025BA32
:103AE00080B5AFF300800C21BDE8804000F01DBA26
:103AF00080B582B00190019B0093186859689A685C
:103B0000DB6801F033F9009B1A695B6901F02EF95B
:103B100002B080BDB0B588B09E46944604460F9969
:103B20000E980D9B0C9A0794CDF814E0CDF810C0B8
:103B3000039302920191009007990498059A4A60B4
:103B400008600298039ACA6088600098019A4A61E6
:103B5000086108B0B0BD000081B00090009800BFBF
:103B6000002141600160C16081604161016101B07B
:103B70007047000080B584B0039002910398FFF76E
:103B8000B7FF00900191029801F0C6F80246009834
:103B90000B46019901F0EAF804B080BD7047704708
:103BA000F0B581B01546DDE906720E4689681C46FF
:103BB0007AB1884204D040684968FCF74DFE60B98C
:103BC00031462A462346069701B0BDE8F04000F092
:103BD00078B8406849688842F2D001B0F0BD2DE95C
:103BE000F0411646069A0C468968984607468AB1FF
:103BF0008F4230D07D6849682846FCF72DFE50B3CF
:103C0000206887420ED041682846FCF725FE48B15F
:103C1000BDE8F0817868496888421CD0216849680D
:103C20008842F5D12069B04220D06069B0421DD0F1
:103C3000D4E90910C4F82080013001296661A0622E
:103C400005D1A069022804BF012084F836000420B1
:103C5000E062BDE8F0816068B042D9D1E069012836
:103C60001CBFC4F81C80BDE8F081D1E7B8F1010F9A
:103C700018BFBDE8F08101202062BDE8F08180B569
:103C8000D1F808C0D0F804E0DCF80400864518BF7D
:103C900080BD086950B190420DD0486A0130486239
:103CA00002208861012081F8360009E001200A61C4
:103CB0008B61486280BD8869022804BF8B6180BD2A
:103CC00080BD80B548684FF0010E984281F835E01C
:103CD00000D080BD0B69DDF808C081F834E02BB15D
:103CE00093420FD0486A0130486217E00120BCF1CE
:103CF000010F0A61C1F818C04862EAD1086B0128B7
:103D00000CD0E6E78A69022A04BFC1F818C06246EF
:103D1000086B012818BF80BD012ADAD1012081F883
:103D2000360080BDF0B58FB0054640684B689842BC
:103D30002DD045F298031446C0F6000345F2A402C4
:103D4000C0F60002084619460023002600F050F98C
:103D5000F0B101AE0746301D3421FCF7A1FA4FF057
:103D6000FF3004900120019703950D903868226878
:103D7000C569384631460123A84707980138B0FA8B
:103D800080F04FEA501604BF0598206000E001263D
:103D900030460FB0F0BD002070472DE9F04383B0EE
:103DA000DDE90A540E4689689846914607467CB17B
:103DB0008F4204D078684968FCF74EFD60B93146FF
:103DC0004A4643460A9503B0BDE8F043FFF779BF82
:103DD000786849688842F2D0B8684A460168434624
:103DE0004F69314600950194B84703B0BDE8F083B0
:103DF0002DE9F04383B0DDF828900C468968984699
:103E00001546B9F1000F074630D08F4240D07E688A
:103E100049683046FCF720FDD0B32068874204D0C3
:103E200041683046FCF718FD40BB2069A84238D0F5
:103E30006069A84235D0E06AC4F82080042838D0F0
:103E40000020A086B8682A4601682B464F690121E8
:103E500000912146CDF80490B84794F8350030B36E
:103E600094F834000321E16280BB22E0786849685D
:103E700088420DD0216849688842D6D0B8682A4661
:103E8000016843468F692146CDF80090B8471DE090
:103E90006068A8421AD1E069012818BFC4F81C80E4
:103EA00014E0B8F1010F04BF012020620EE00420ED
:103EB000E062D4E90910656101300129A06205D1F1
:103EC000A069022804BF012084F8360003B0BDE8D1
:103ED000F08380B5D1F808C0D0F804E0DCF804C065
:103EE000E64507D08068D0F800C0DCF81CC0BDE80B
:103EF00080406047086950B190420DD0486A013057
:103F0000486202208861012081F8360009E0012022
:103F10000A618B61486280BD8869022804BF8B6199
:103F200080BD80BD7047FCF7D7BCFFF7FCBF000029
:103F300081B08DF803009DF9030000280ED4FFE73F
:103F40009DF9031001F01F02012090404A094EF232
:103F50000011CEF2000141F82200FFE701B07047E6
:103F60004EF60C50CEF200000068C0F302207047FD
:103F700082B08DF8070000919DF9070000280AD44F
:103F8000FFE7009800019DF907104EF20042CEF2C3
:103F9000000288540BE0009800019DF8071001F022
:103FA0000F014EF61452CEF200028854FFE702B021
:103FB0007047000083B00290029800F00700009064
:103FC0004EF60C51CEF200010868019001984FF6B0
:103FD000FF02104001900198009A40EA022000225E
:103FE000C0F2FA52104301900198086003B0704784
:103FF000F0B591B01446026852E90256CDE903408B
:10400000054403A8CDE9051310302721FCF748F932
:104010007068616888421CD030680024876903A9F1
:1040200030462A4601230094B8470C98012822D034
:1040300080BB0D99DDE90A02089C81F0010180F046
:1040400001000023012A18BF1C46084318BF1C4664
:1040500020E001200F90316800274C69009003A9EF
:1040600030462A462B460197A0470998012818BFD9
:104070003D462C460EE00998012801D1079C09E035
:104080000D98002430B90A98012803D10B98012813
:1040900008BF079C204611B0F0BD000080B5ADF50B
:1040A000227D002207929F9268460021C4F20801F7
:1040B0000691C16082604FF08041416002600EA8AD
:1040C00005900023C3F6F0730893FFF723FD0598CE
:1040D000FFF70EFD05980321FFF74CFD1B911A9089
:1040E0000120FFF7DDFA0698079A089B6946C86029
:1040F0008A6049F69910C4F20100486049F69A10A6
:10410000C9F69910086014A80990FFF703FD0998F3
:10411000FFF722FDFEF794FA9B90FEF7ABFAFFF74C
:10412000BFFB45F29000C0F60000A090A098406848
:10413000A190A1980D90FFF77FFCFFF7F9FBFFF727
:1041400013FCFFF79BFC40F27000C2F200009BA939
:104150000422FDF7CFFD0D9A45F2DC11C0F60001F7
:104160001DA80A90FCF786F80A9940F2E400C2F212
:1041700000004FF4FA720F23FFF7ACF964200C90A3
:10418000FFE70C9801300C90FFE70C986428F8DCEE
:10419000FFE700BFFFE7FFE700200B90FFE70B986A
:1041A00003281CDCFFE70B999BA850F8210000F0C6
:1041B000CAFD4FF0663246F26663C4F20A0300F0AD
:1041C000D5FD00220023C4F2B00300F04BFC00F048
:1041D00017FC9A90FFE70B9801300B90DFE7DAE7C6
:1041E0005FEA400C08BF91F0000F4FEA8C234FEAC2
:1041F000C12243EA51514FEA1C5018BF00F5F0406C
:104200004FEA300018BF41F000415FEA6C5C00F0FB
:104210002980BCF1FF3F08BF40F080407047130C7D
:1042200006BF12044FF0100C4FF0000C130E04BF29
:1042300012020CF1080C130F04BF12010CF1040C54
:10424000930F04BF92000CF1020CD30F04BF520075
:104250000CF1010C11464FF00002A0F11F00A0EB81
:104260000C00704711F0004F08BF704731F000415B
:104270003FF4D5AF0B0C06BF09044FF0100C4FF004
:10428000000C0B0E04BF09020CF1080C0B0F04BF4D
:1042900009010CF1040C8B0F04BF89000CF1020C16
:1042A000CB0F04BF49000CF1010CCCF1200322FA22
:1042B00003F341EA030102FA0CF2A0EB0C0000F157
:1042C0000100704723F07F4720F07F4C80EA030015
:1042D00000F00040ACEB070303F57C5303F1FF0350
:1042E0002DE9804909B44FEA144324EA03484FEA10
:1042F000154B25EA0B4E0FF2042606EB13273E78EA
:1043000003FB0667C7F5000707FB06F64FEAD6462C
:1043100006F102064FEA543707FB066CCCF1005C4D
:104320004FEA1C472CEA074C0CFB06F507FB06F48A
:1043300004EB15464FEA961649085FEA320234BF8D
:1043400000204FF000404FEAD13706FB07FC4FEA50
:104350001C4C0CFB0BF7D21B03FB0CF761EB0701AA
:104360000CFB0EF7B0EB074072EB17420CFB08F7A3
:1043700034BFA2EB0742B2EB074261EB17414FEAB1
:104380000C444FEA910706FB07FC4FEA1C4C0CFB60
:104390000BF7B0EBC74072EB573203FB0CF734BF9F
:1043A000A2EBC742B2EBC74261EB57310CFB0EF7F1
:1043B000B0EBC70072EB57720CFB08F734BFA2EBEF
:1043C000C702B2EBC70261EB57714FEA816141EA64
:1043D00092114FEA826242EA90124FEA806004EB47
:1043E000CC04039F4FEAD13706FB07FC4FEA1C4C75
:1043F0000CFB0BF7D21B03FB0CF761EB07010CFB6B
:104400000EF7B0EB074072EB17420CFB08F734BF16
:10441000A2EB0742B2EB074261EB17414FEA8C5522
:1044200004EB9C244FEA910706FB07FC4FEA1C4C67
:104430000CFB0BF7B0EBC74072EB573203FB0CF7EA
:1044400034BFA2EBC742B2EBC74261EB57310CFB62
:104450000EF7B0EBC70072EB57720CFB08F734BFD6
:10446000A2EBC702B2EBC70261EB57714FEA816161
:1044700041EA92114FEA826242EA90124FEA80606A
:1044800015EB4C2544F100044FEAD13706FB07FC3D
:104490004FEA1C4C0CFB0BF7D21B03FB0CF761EB38
:1044A00007010CFB0EF7B0EB074072EB17420CFB59
:1044B00008F734BFA2EB0742B2EB074261EB1741AA
:1044C0004FEA813141EA92414FEA823242EA904218
:1044D0004FEA80304FEA0C7615EB1C1544F10004CE
:1044E00048EA03434EEA0B484FF0000EB2EB080CCB
:1044F00071EB030724BF624639464EEB0E0E4FF0B8
:10450000000B0018524149414BEB0B0BB2EB080C6E
:1045100071EB03077BF1000B24BF624639464EEB7B
:104520000E0E4FF0000B0018524149414BEB0B0BA4
:10453000B2EB080C71EB03077BF1000B24BF624662
:1045400039464EEB0E0E51EA020718BF46F001063F
:1045500016EB0E7655F1000254F1000103D5BDE8CB
:104560008901BDE80088BDE88901BDE80048B619A9
:10457000524141EB0101A3F10103704780807F7E2E
:104580007D7C7B7A797877767675747372717170C9
:104590006F6E6E6D6C6C6B6A6A696868676666657B
:1045A0006464636362616160605F5F5E5E5D5D5C09
:1045B0005C5B5B5A5A59595858575756565555557A
:1045C0005454535352525251515050504F4F4F4EDA
:1045D0004E4D4D4D4C4C4C4B4B4B4A4A4A49494928
:1045E000484848474747474646464545454444446A
:1045F0004443434343424242424141419C46002B93
:1046000030D477002BD04FEA37071CB503B44FF0F6
:1046100010004FF01001BAF1000F06D0BCF1000FEE
:10462000DCBF40F0080040F008014FF000000FBC74
:10463000BDE810400BF1010BBBF1010F08BF5FEAB1
:10464000170722BF12F1010211F101014FF00041E1
:1046500043F1000300F0004043EA00007047F9D343
:104660005708D0E746EA06464FEA164613F1400FD0
:104670001FDD13F1200FDFBF16430A460021203350
:104680005B42BED0C3F1200746EA06464FEA164613
:1046900002FA07F746EA070622FA03F2C3F12007F7
:1046A00001FA07F742EA070221FA03F14FF000038B
:1046B000A7E746EA020646EA06464FEA164646EAF3
:1046C0000106BCBF46EA0646360C4FF000034FF029
:1046D00000024FF0000194E72DE9804C70B49A4637
:1046E000934691E8380007C831EA400C48BF34EAE5
:1046F000430C03D5FFF7E6FDFFF780FFF0BCBDE8F4
:10470000008C2DE9804C70B49A46934691E83800AD
:1047100007C810F0804F08BF13F0804F03D100F09E
:1047200005F8FFF76BFFF0BCBDE8008C20F07F4779
:1047300023F07F4C80EA030000F0004007EB0C03FD
:10474000A3F57C53A3F1FE0392F0000F00F0B380B9
:1047500095F0000F00F077802DE901494FEA1140F4
:1047600021EA00484FEA144624EA064700FB06FC0B
:1047700008FB06F607FB08F818EB06484CEB164C4E
:1047800000FB07F718EB07484CEB17404FEA124BBA
:1047900022EA0B4E4FEA154625EA06470BFB06FCBC
:1047A0000EFB06F607FB0EFE1EEB064E4CEB164C00
:1047B0000BFB07F71EEB074E4CEB174B18EB0B08E8
:1047C00040F1000018EB0E0B58EB000840F1000020
:1047D0008F1A4FF000014FF000063CBFC943661B23
:1047E00014BFB5EB040C00213CBFC943F61B4FEAD4
:1047F000174427EA04454FEA1C472CEA074C04FB00
:10480000076205FB07F70CFB05F616EB074642EBC4
:10481000174204FB0CFC16EB0C4642EB1C421BEB54
:10482000060658EB020241414EEA8E0E46EA9E060B
:1048300001D5BDE80189B619524141EB0101A3F14F
:104840000103BDE801894FEA144524EA05464FEA11
:10485000114721EA074C05FB07F406FB07F70CFBA1
:1048600006F111EB074144EB174405FB0CFC11EB7F
:104870000C4144EB1C444FEA124722EA074C05FB6B
:1048800007F206FB07F70CFB06F616EB074642EBB2
:10489000174205FB0CFC16EB0C4642EB1C456A1854
:1048A00054F1000148BF7047B619524141EB010174
:1048B000A3F10103704795F0000F37D04FEA114282
:1048C00021EA02464FEA144724EA074C02FB07F1AB
:1048D00006FB07F70CFB06F414EB074441EB17410A
:1048E00002FB0CFC14EB0C4441EB1C414FEA154756
:1048F00025EA074C02FB07F506FB07F70CFB06F65B
:1049000016EB074645EB174502FB0CFC16EB0C4675
:1049100045EB1C42121951F1000148BF7047B6190E
:10492000524141EB0101A3F1010370474FEA1445E5
:1049300024EA05464FEA114721EA074C05FB07F137
:1049400006FB07F70CFB06F212EB074241EB17419F
:1049500005FB0CFC12EB0C4251EB1C414FF0000626
:1049600048BF7047921841EB0101A3F10103704762
:10497000490050EAC12018BF04204A0D18BF40F07A
:10498000010040F2FF72B2EB515F08BF40F002003D
:10499000012808BF0520704730380A2801D20120BD
:1049A000704700207047000010B500290AD0087831
:1049B000002807D005487844FBF74EFF002801D0B7
:1049C000002010BD0248784410BD00004A080000D5
:1049D0004208000010B500290AD00878002807D046
:1049E00005487844FBF738FF002801D0002010BDAF
:1049F0000248784410BD00003A0800003208000068
:104A000021F0004201F00043A2F16052B2F5801F94
:104A100028BFD2F17F6C0BD95FEA001C43EAC202C7
:104A200042EB507018BF704728BF20F0010070475C
:104A3000B2F5801FBCBF184670474FEA410C1CF509
:104A4000001F02D2084600F08FBA70B500F038FAA5
:104A500000000089FFF7F6BF4FF00040A0F580008E
:104A6000704700002DE9C04130B4DFF8A4C23CEA31
:104A7000111418BF3CEA131400F0ED801CEA111465
:104A800081EA030544EAD57418BF1CEA131500F047
:104A9000C880A4EB050404F17F7404F500344FF0E2
:104AA000004545EAC12145EAC32341EA505143EAA2
:104AB00052534FEAC0204FEAC222994208BF9042A7
:104AC00000F09D804FEA13650FF24416765D4FEAC1
:104AD000134506FB05F7C7F1807706FB07F74FEA9A
:104AE000D737A7FB03687642A7FB06CEC8F5803808
:104AF00038BFA8F1010807FB08E6A6FB028C4FF0BF
:104B0000000EE6FB03CEDCF1000CCEF1004E38BF08
:104B1000AEF1010EA6FB0C584FF00007E6FB0E8726
:104B2000A1FB08C6A0FB07CE16EB0E064FF0000552
:104B300045F10005E1FB076515F1E04E7EBFA4F5E8
:104B400080345FEA46066D4116F1800745F10005A5
:104B50004FEA172747EA05674FEA15254FEA066629
:104B6000A6F1DE46B6F1805F20D9384605EBC47168
:104B700024F0010C01EB0C11BCF1FE6F02D8F0BC6B
:104B8000BDE8008124425CBF01F5801E9EEAC47F1F
:104B900002D4F0BCBDE80081244200F13980A1F1CB
:104BA000C041F0BCBDE8004100F0D8B94FEAD020C8
:104BB00040EA41504FEAD1214FEAD22242EA435221
:104BC0004FEAD323A7FB028607FB036605FB0266B9
:104BD0001EEA0E0F58BFA6EB0056B6EB00564FEA82
:104BE000520E4EEAC37E18EB0E0E56EB530EBCD59A
:104BF00018EB02085E417F1C55F10005B5E74FF444
:104C000080154FF000074FF000064FF00008ACE7AA
:104C100001F1C04101F000414FF00000F0BCBDE8DF
:104C200000810CEA131511EA0C1F00D00CE013EA06
:104C30000C1F00F026804FF0000081EA030101F014
:104C40000041F0BCBDE80081F0BCBDE8004181EA54
:104C5000030100F083B9F0BCBDE8004170B500F07D
:104C60002FF900BF097EFC3E00F007B84FF00000AE
:104C700081EA030101F00041704781EA030100F07D
:104C80006DB9F0BCBDE8004122494FF0000070470B
:104C9000FFFDFBF9F7F5F4F2F0EEEDEBE9E8E6E401
:104CA000E3E1E0DEDDDBDAD8D7D5D4D3D1D0CFCD88
:104CB000CCCBCAC8C7C6C5C4C2C1C0BFBEBDBCBBC1
:104CC000BAB9B8B7B6B5B4B3B2B1B0AFAEADACABBC
:104CD000AAA9A8A8A7A6A5A4A3A3A2A1A09F9F9E96
:104CE0009D9C9C9B9A999998979796959594939348
:104CF000929191908F8F8E8E8D8C8C8B8B8A8989DF
:104D00008888878786858584848383828281818061
:104D10000000FF070000F87F10F0004248BF40424B
:104D2000B0FA80F310FA03F10AD0C3F11D0303F5C2
:104D3000806302EB03524FEA415002EBD1217047EE
:104D40004FF000007047B0FA80F310FA03F10AD078
:104D5000C3F11D0303F580634FEA03524FEA41504C
:104D600002EBD12170474FF00000704770B5DFF8BB
:104D700048C11CEA111E1EBF1CEA13159EEA0C0F47
:104D800095EA0C0F00F06F8081EA03044EEAD47EAE
:104D9000AE4421EA4C1123EA4C1341F4801143F450
:104DA0008013AEF17F7EA1FB024CA0FB0365361998
:104DB00055EB0C05A1FB034C4CF10003A0FB021CBE
:104DC00016EB0C06654153F10003094218BF46F08B
:104DD000010613F4007F0BD14FEA03314FEA05308F
:104DE00041EA155140EA165034036FF003020AE01D
:104DF0004FEAC3214FEAC52041EA555140EA5650D7
:104E0000F4026FF0020202EB2E4201EB025585EA3A
:104E1000CE710AD05FEA440C18BF24F0004450F170
:104E2000000041F1000120EAD47040F2FE7C6245AE
:104E300000D270BDA84214BF4FF080444FF04044F0
:104E4000002E08BF0024BEF1806FA8BFA1F1C041B1
:104E5000BDE8704080F2828001F1C04101F0004164
:104E60004FF0000070470CEA13159EEA0C0F18BFB4
:104E700095EA0C0F06D081EA030E4FF000000EF009
:104E8000004170BD00F01CF88900013E00F007B839
:104E900000F009B84FEA430C5FEA5C5C08D081EA95
:104EA000030100F05BB84FEA410C5FEA5C5CF6D1AD
:104EB00002494FF0000070470000FF070000F87F34
:104EC0000EF1020E2EF0030E5EF8046B364205D48E
:104ED000012A43EB030515F5001F12D8012841EB09
:104EE000010C1CF5001F0CD80ED14FEAD17C0CEB45
:104EF0004C0C0CF1020C15F5001F08BF4CEBD37CD9
:104F000004E04FF0080C01E04FEAD37C0CEB4C05B9
:104F100026FA05F606F00706B6F1040C06D20EEBEB
:104F2000860CBDE870404CF0010C6047DFE80CF0E7
:104F3000090B02024FF00041A1F500214FF00000E3
:104F400070BD19461046012851EB010418BFD4F575
:104F5000001484BF002001F0004170BD0808A0F5D6
:104F600000114FEA31017047FF2141EAD050C005DE
:104F70007047FBF74EBEFBF783BF00000000000048
:104F80000000000030313233343536373839414291
:104F9000434445464030580030313233343536379B
:104FA0003839616263646566403078000400000847
:104FB000000000000000000200010000103031324B
:104FC000333435363738396162636465667870002A
:104FD000303132333435363738394142434445462F
:104FE0005850000002400000000000A00000000037
:104FF00005400000000000C8000000000C40000058
:105000000000409C00000000194000000020BCBED1
:105010000000000034400000BFC91B8E00000004E7
:10502000B5400000504BCFD06607E2CF0100000032
:105030006C4100003E8251AADFEEA734010000005F
:10504000D9420000DCB5A0E23A301F97FFFFFFFF16
:10505000B4450000FD25A0C8E9A3C14FFFFFFFFF35
:10506000FF3F00000000008000000000FF3F000044
:1050700000000080000000000000000000000000B0
:1050800001020304060708090000000001020304EE
:10509000A0510008D0500008BC510008D5500008AD
:1050A000C8500008BC510008F6500008985000088D
:1050B000BC5100081851000898500008BC51000865
:1050C0003D510008A45000087851000862510008C2
:1050D00046767645004E31305F5F6378786162696D
:1050E000763131365F5F7368696D5F747970655FC3
:1050F000696E666F45004E31305F5F63787861623C
:1051000069763131375F5F636C6173735F74797097
:10511000655F696E666F45004E31305F5F6378781A
:10512000616269763132305F5F66756E6374696F94
:105130006E5F747970655F696E666F45004E3130E1
:105140005F5F637878616269763132305F5F73697F
:105150005F636C6173735F747970655F696E666FAE
:105160004500537439747970655F696E666F00002D
:1051700000000000A4500008BD3A0008C13A000831
:105180009D3B00089F3B0008253D0008A13B00080F
:10519000DF3B00087F3C000800000000B050000822
:1051A000BD3A0008D13A00089D3B00089F3B00082B
:1051B000973D000800000000BC500008BD3A000800
:1051C000E13A00089D3B00089F3B0008253D000890
:1051D0009B3D0008F13D0008D33E000825730A00FE
:1051E00030530008000000201000000028010008D3
:1051F0004053000810000020200700004401000870
:105200001C00000043000000F8FFFFFF0C0000003E
:105210000E0000000F0000002E0000001001000032
:1052200043000000F8FFFFFF004040404040404086
:105230004040414141414140404040404040404069
:10524000404040404040404040050202020202020D
:10525000020202020202020202202020202020205C
:105260002020200202020202020290909090909070
:10527000101010101010101010101010101010102E
:1052800010101010020202020202888888888888A2
:10529000080808080808080808080808080808088E
:1052A0000808080802020202400000000000000096
:1052B00000000000000000000000000000000000EE
:1052C00000000000000000000000000000000000DE
:1052D00000000000000000000000000000000000CE
:1052E00000000000000000000000000000000000BE
:1052F00000000000000000000000000000000000AE
:10530000000000000000000000000000000000009D
:10531000000000000000000000000000000000008D
:10532000000000000000000000000000000000007D
:105330000024F40001000000100000000000000044
:04000005080000ED02
:00000001FF
